{
  "_format": "hh-sol-artifact-1",
  "contractName": "NFTMarketplace",
  "sourceName": "contracts/NFTMarketplace.sol",
  "abi": [
    {
      "inputs": [],
      "stateMutability": "nonpayable",
      "type": "constructor"
    },
    {
      "anonymous": false,
      "inputs": [
        {
          "indexed": true,
          "internalType": "address",
          "name": "owner",
          "type": "address"
        },
        {
          "indexed": true,
          "internalType": "address",
          "name": "approved",
          "type": "address"
        },
        {
          "indexed": true,
          "internalType": "uint256",
          "name": "tokenId",
          "type": "uint256"
        }
      ],
      "name": "Approval",
      "type": "event"
    },
    {
      "anonymous": false,
      "inputs": [
        {
          "indexed": true,
          "internalType": "address",
          "name": "owner",
          "type": "address"
        },
        {
          "indexed": true,
          "internalType": "address",
          "name": "operator",
          "type": "address"
        },
        {
          "indexed": false,
          "internalType": "bool",
          "name": "approved",
          "type": "bool"
        }
      ],
      "name": "ApprovalForAll",
      "type": "event"
    },
    {
      "anonymous": false,
      "inputs": [
        {
          "indexed": true,
          "internalType": "address",
          "name": "from",
          "type": "address"
        },
        {
          "indexed": true,
          "internalType": "address",
          "name": "to",
          "type": "address"
        },
        {
          "indexed": true,
          "internalType": "uint256",
          "name": "tokenId",
          "type": "uint256"
        }
      ],
      "name": "Transfer",
      "type": "event"
    },
    {
      "anonymous": false,
      "inputs": [
        {
          "indexed": true,
          "internalType": "uint256",
          "name": "tokenId",
          "type": "uint256"
        },
        {
          "indexed": false,
          "internalType": "address",
          "name": "seller",
          "type": "address"
        },
        {
          "indexed": false,
          "internalType": "address",
          "name": "buyer",
          "type": "address"
        },
        {
          "indexed": false,
          "internalType": "uint256",
          "name": "price",
          "type": "uint256"
        },
        {
          "indexed": false,
          "internalType": "bool",
          "name": "sold",
          "type": "bool"
        }
      ],
      "name": "idMarketItemCreated",
      "type": "event"
    },
    {
      "inputs": [
        {
          "internalType": "address",
          "name": "to",
          "type": "address"
        },
        {
          "internalType": "uint256",
          "name": "tokenId",
          "type": "uint256"
        }
      ],
      "name": "approve",
      "outputs": [],
      "stateMutability": "nonpayable",
      "type": "function"
    },
    {
      "inputs": [
        {
          "internalType": "address",
          "name": "owner",
          "type": "address"
        }
      ],
      "name": "balanceOf",
      "outputs": [
        {
          "internalType": "uint256",
          "name": "",
          "type": "uint256"
        }
      ],
      "stateMutability": "view",
      "type": "function"
    },
    {
      "inputs": [
        {
          "internalType": "uint256",
          "name": "_tokenId",
          "type": "uint256"
        }
      ],
      "name": "createMarketSale",
      "outputs": [],
      "stateMutability": "payable",
      "type": "function"
    },
    {
      "inputs": [
        {
          "internalType": "string",
          "name": "_tokenURI",
          "type": "string"
        },
        {
          "internalType": "uint256",
          "name": "_price",
          "type": "uint256"
        }
      ],
      "name": "createToken",
      "outputs": [
        {
          "internalType": "uint256",
          "name": "",
          "type": "uint256"
        }
      ],
      "stateMutability": "payable",
      "type": "function"
    },
    {
      "inputs": [],
      "name": "fecthMyNFTs",
      "outputs": [
        {
          "components": [
            {
              "internalType": "uint256",
              "name": "tokenId",
              "type": "uint256"
            },
            {
              "internalType": "address payable",
              "name": "seller",
              "type": "address"
            },
            {
              "internalType": "address payable",
              "name": "owner",
              "type": "address"
            },
            {
              "internalType": "uint256",
              "name": "price",
              "type": "uint256"
            },
            {
              "internalType": "bool",
              "name": "sold",
              "type": "bool"
            }
          ],
          "internalType": "struct NFTMarketplace.MarketItem[]",
          "name": "",
          "type": "tuple[]"
        }
      ],
      "stateMutability": "view",
      "type": "function"
    },
    {
      "inputs": [],
      "name": "fetchItemsListed",
      "outputs": [
        {
          "components": [
            {
              "internalType": "uint256",
              "name": "tokenId",
              "type": "uint256"
            },
            {
              "internalType": "address payable",
              "name": "seller",
              "type": "address"
            },
            {
              "internalType": "address payable",
              "name": "owner",
              "type": "address"
            },
            {
              "internalType": "uint256",
              "name": "price",
              "type": "uint256"
            },
            {
              "internalType": "bool",
              "name": "sold",
              "type": "bool"
            }
          ],
          "internalType": "struct NFTMarketplace.MarketItem[]",
          "name": "",
          "type": "tuple[]"
        }
      ],
      "stateMutability": "view",
      "type": "function"
    },
    {
      "inputs": [],
      "name": "fetchMarketItems",
      "outputs": [
        {
          "components": [
            {
              "internalType": "uint256",
              "name": "tokenId",
              "type": "uint256"
            },
            {
              "internalType": "address payable",
              "name": "seller",
              "type": "address"
            },
            {
              "internalType": "address payable",
              "name": "owner",
              "type": "address"
            },
            {
              "internalType": "uint256",
              "name": "price",
              "type": "uint256"
            },
            {
              "internalType": "bool",
              "name": "sold",
              "type": "bool"
            }
          ],
          "internalType": "struct NFTMarketplace.MarketItem[]",
          "name": "",
          "type": "tuple[]"
        }
      ],
      "stateMutability": "view",
      "type": "function"
    },
    {
      "inputs": [
        {
          "internalType": "uint256",
          "name": "tokenId",
          "type": "uint256"
        }
      ],
      "name": "getApproved",
      "outputs": [
        {
          "internalType": "address",
          "name": "",
          "type": "address"
        }
      ],
      "stateMutability": "view",
      "type": "function"
    },
    {
      "inputs": [],
      "name": "getListingPrice",
      "outputs": [
        {
          "internalType": "uint256",
          "name": "",
          "type": "uint256"
        }
      ],
      "stateMutability": "view",
      "type": "function"
    },
    {
      "inputs": [
        {
          "internalType": "address",
          "name": "owner",
          "type": "address"
        },
        {
          "internalType": "address",
          "name": "operator",
          "type": "address"
        }
      ],
      "name": "isApprovedForAll",
      "outputs": [
        {
          "internalType": "bool",
          "name": "",
          "type": "bool"
        }
      ],
      "stateMutability": "view",
      "type": "function"
    },
    {
      "inputs": [],
      "name": "name",
      "outputs": [
        {
          "internalType": "string",
          "name": "",
          "type": "string"
        }
      ],
      "stateMutability": "view",
      "type": "function"
    },
    {
      "inputs": [
        {
          "internalType": "uint256",
          "name": "tokenId",
          "type": "uint256"
        }
      ],
      "name": "ownerOf",
      "outputs": [
        {
          "internalType": "address",
          "name": "",
          "type": "address"
        }
      ],
      "stateMutability": "view",
      "type": "function"
    },
    {
      "inputs": [
        {
          "internalType": "uint256",
          "name": "_tokenId",
          "type": "uint256"
        },
        {
          "internalType": "uint256",
          "name": "_price",
          "type": "uint256"
        }
      ],
      "name": "resellToken",
      "outputs": [],
      "stateMutability": "payable",
      "type": "function"
    },
    {
      "inputs": [
        {
          "internalType": "address",
          "name": "from",
          "type": "address"
        },
        {
          "internalType": "address",
          "name": "to",
          "type": "address"
        },
        {
          "internalType": "uint256",
          "name": "tokenId",
          "type": "uint256"
        }
      ],
      "name": "safeTransferFrom",
      "outputs": [],
      "stateMutability": "nonpayable",
      "type": "function"
    },
    {
      "inputs": [
        {
          "internalType": "address",
          "name": "from",
          "type": "address"
        },
        {
          "internalType": "address",
          "name": "to",
          "type": "address"
        },
        {
          "internalType": "uint256",
          "name": "tokenId",
          "type": "uint256"
        },
        {
          "internalType": "bytes",
          "name": "data",
          "type": "bytes"
        }
      ],
      "name": "safeTransferFrom",
      "outputs": [],
      "stateMutability": "nonpayable",
      "type": "function"
    },
    {
      "inputs": [
        {
          "internalType": "address",
          "name": "operator",
          "type": "address"
        },
        {
          "internalType": "bool",
          "name": "approved",
          "type": "bool"
        }
      ],
      "name": "setApprovalForAll",
      "outputs": [],
      "stateMutability": "nonpayable",
      "type": "function"
    },
    {
      "inputs": [
        {
          "internalType": "bytes4",
          "name": "interfaceId",
          "type": "bytes4"
        }
      ],
      "name": "supportsInterface",
      "outputs": [
        {
          "internalType": "bool",
          "name": "",
          "type": "bool"
        }
      ],
      "stateMutability": "view",
      "type": "function"
    },
    {
      "inputs": [],
      "name": "symbol",
      "outputs": [
        {
          "internalType": "string",
          "name": "",
          "type": "string"
        }
      ],
      "stateMutability": "view",
      "type": "function"
    },
    {
      "inputs": [
        {
          "internalType": "uint256",
          "name": "tokenId",
          "type": "uint256"
        }
      ],
      "name": "tokenURI",
      "outputs": [
        {
          "internalType": "string",
          "name": "",
          "type": "string"
        }
      ],
      "stateMutability": "view",
      "type": "function"
    },
    {
      "inputs": [
        {
          "internalType": "address",
          "name": "from",
          "type": "address"
        },
        {
          "internalType": "address",
          "name": "to",
          "type": "address"
        },
        {
          "internalType": "uint256",
          "name": "tokenId",
          "type": "uint256"
        }
      ],
      "name": "transferFrom",
      "outputs": [],
      "stateMutability": "nonpayable",
      "type": "function"
    },
    {
      "inputs": [
        {
          "internalType": "uint256",
          "name": "_listingPrice",
          "type": "uint256"
        }
      ],
      "name": "updateListingPrice",
      "outputs": [],
      "stateMutability": "payable",
      "type": "function"
    }
  ],
  "bytecode": "0x60a06040526605543df729c0006009553480156200001c57600080fd5b506040518060400160405280601381526020017f4e4654204d657461766572736520546f6b656e000000000000000000000000008152506040518060400160405280600481526020017f4d4554410000000000000000000000000000000000000000000000000000000081525081600090816200009a919062000363565b508060019081620000ac919062000363565b5050503373ffffffffffffffffffffffffffffffffffffffff1660808173ffffffffffffffffffffffffffffffffffffffff16815250506200044a565b600081519050919050565b7f4e487b7100000000000000000000000000000000000000000000000000000000600052604160045260246000fd5b7f4e487b7100000000000000000000000000000000000000000000000000000000600052602260045260246000fd5b600060028204905060018216806200016b57607f821691505b60208210810362000181576200018062000123565b5b50919050565b60008190508160005260206000209050919050565b60006020601f8301049050919050565b600082821b905092915050565b600060088302620001eb7fffffffffffffffffffffffffffffffffffffffffffffffffffffffffffffffff82620001ac565b620001f78683620001ac565b95508019841693508086168417925050509392505050565b6000819050919050565b6000819050919050565b6000620002446200023e62000238846200020f565b62000219565b6200020f565b9050919050565b6000819050919050565b620002608362000223565b620002786200026f826200024b565b848454620001b9565b825550505050565b600090565b6200028f62000280565b6200029c81848462000255565b505050565b5b81811015620002c457620002b860008262000285565b600181019050620002a2565b5050565b601f8211156200031357620002dd8162000187565b620002e8846200019c565b81016020851015620002f8578190505b6200031062000307856200019c565b830182620002a1565b50505b505050565b600082821c905092915050565b6000620003386000198460080262000318565b1980831691505092915050565b600062000353838362000325565b9150826002028217905092915050565b6200036e82620000e9565b67ffffffffffffffff8111156200038a5762000389620000f4565b5b62000396825462000152565b620003a3828285620002c8565b600060209050601f831160018114620003db5760008415620003c6578287015190505b620003d2858262000345565b86555062000442565b601f198416620003eb8662000187565b60005b828110156200041557848901518255600182019150602085019450602081019050620003ee565b8683101562000435578489015162000431601f89168262000325565b8355505b6001600288020188555050505b505050505050565b60805161428a6200046d600039600081816112b401526114a5015261428a6000f3fe60806040526004361061012a5760003560e01c80636352211e116100ab578063ae677aa31161006f578063ae677aa3146103f9578063b88d4fde14610415578063be9af5361461043e578063c87b56dd1461045a578063e219fc7514610497578063e985e9c5146104b35761012a565b80636352211e146102fb57806370a082311461033857806372b3b6201461037557806395d89b41146103a5578063a22cb465146103d05761012a565b806312e85585116100f257806312e85585146102285780631e6254a81461025357806323b872dd1461027e57806342842e0e146102a757806345f8fa80146102d05761012a565b806301ffc9a71461012f57806306fdde031461016c578063081812fc14610197578063095ea7b3146101d45780630f08efe0146101fd575b600080fd5b34801561013b57600080fd5b5061015660048036038101906101519190612bc0565b6104f0565b6040516101639190612c08565b60405180910390f35b34801561017857600080fd5b506101816105d2565b60405161018e9190612cb3565b60405180910390f35b3480156101a357600080fd5b506101be60048036038101906101b99190612d0b565b610664565b6040516101cb9190612d79565b60405180910390f35b3480156101e057600080fd5b506101fb60048036038101906101f69190612dc0565b6106aa565b005b34801561020957600080fd5b506102126107c1565b60405161021f9190612f56565b60405180910390f35b34801561023457600080fd5b5061023d610a29565b60405161024a9190612f87565b60405180910390f35b34801561025f57600080fd5b50610268610a33565b6040516102759190612f56565b60405180910390f35b34801561028a57600080fd5b506102a560048036038101906102a09190612fa2565b610d1f565b005b3480156102b357600080fd5b506102ce60048036038101906102c99190612fa2565b610d7f565b005b3480156102dc57600080fd5b506102e5610d9f565b6040516102f29190612f56565b60405180910390f35b34801561030757600080fd5b50610322600480360381019061031d9190612d0b565b61108b565b60405161032f9190612d79565b60405180910390f35b34801561034457600080fd5b5061035f600480360381019061035a9190612ff5565b611111565b60405161036c9190612f87565b60405180910390f35b61038f600480360381019061038a9190613157565b6111c8565b60405161039c9190612f87565b60405180910390f35b3480156103b157600080fd5b506103ba61120a565b6040516103c79190612cb3565b60405180910390f35b3480156103dc57600080fd5b506103f760048036038101906103f291906131df565b61129c565b005b610413600480360381019061040e9190612d0b565b6112b2565b005b34801561042157600080fd5b5061043c600480360381019061043791906132c0565b61134a565b005b61045860048036038101906104539190612d0b565b6113ac565b005b34801561046657600080fd5b50610481600480360381019061047c9190612d0b565b61158d565b60405161048e9190612cb3565b60405180910390f35b6104b160048036038101906104ac9190613343565b61169f565b005b3480156104bf57600080fd5b506104da60048036038101906104d59190613383565b611895565b6040516104e79190612c08565b60405180910390f35b60007f80ac58cd000000000000000000000000000000000000000000000000000000007bffffffffffffffffffffffffffffffffffffffffffffffffffffffff1916827bffffffffffffffffffffffffffffffffffffffffffffffffffffffff191614806105bb57507f5b5e139f000000000000000000000000000000000000000000000000000000007bffffffffffffffffffffffffffffffffffffffffffffffffffffffff1916827bffffffffffffffffffffffffffffffffffffffffffffffffffffffff1916145b806105cb57506105ca82611929565b5b9050919050565b6060600080546105e1906133f2565b80601f016020809104026020016040519081016040528092919081815260200182805461060d906133f2565b801561065a5780601f1061062f5761010080835404028352916020019161065a565b820191906000526020600020905b81548152906001019060200180831161063d57829003601f168201915b5050505050905090565b600061066f82611993565b6004600083815260200190815260200160002060009054906101000a900473ffffffffffffffffffffffffffffffffffffffff169050919050565b60006106b58261108b565b90508073ffffffffffffffffffffffffffffffffffffffff168373ffffffffffffffffffffffffffffffffffffffff1603610725576040517f08c379a000000000000000000000000000000000000000000000000000000000815260040161071c90613495565b60405180910390fd5b8073ffffffffffffffffffffffffffffffffffffffff166107446119de565b73ffffffffffffffffffffffffffffffffffffffff16148061077357506107728161076d6119de565b611895565b5b6107b2576040517f08c379a00000000000000000000000000000000000000000000000000000000081526004016107a990613527565b60405180910390fd5b6107bc83836119e6565b505050565b606060006107cf6007611a9f565b905060006107dd6008611a9f565b6107e76007611a9f565b6107f19190613576565b90506000808267ffffffffffffffff8111156108105761080f61302c565b5b60405190808252806020026020018201604052801561084957816020015b610836612af7565b81526020019060019003908161082e5790505b50905060005b84811015610a1e573073ffffffffffffffffffffffffffffffffffffffff16600a600060018461087f91906135aa565b815260200190815260200160002060020160009054906101000a900473ffffffffffffffffffffffffffffffffffffffff1673ffffffffffffffffffffffffffffffffffffffff1603610a0b5760006001826108db91906135aa565b90506000600a60008381526020019081526020016000209050806040518060a0016040529081600082015481526020016001820160009054906101000a900473ffffffffffffffffffffffffffffffffffffffff1673ffffffffffffffffffffffffffffffffffffffff1673ffffffffffffffffffffffffffffffffffffffff1681526020016002820160009054906101000a900473ffffffffffffffffffffffffffffffffffffffff1673ffffffffffffffffffffffffffffffffffffffff1673ffffffffffffffffffffffffffffffffffffffff168152602001600382015481526020016004820160009054906101000a900460ff1615151515815250508486815181106109ee576109ed6135de565b5b6020026020010181905250600185610a0691906135aa565b945050505b8080610a169061360d565b91505061084f565b508094505050505090565b6000600954905090565b60606000610a416007611a9f565b905060008060005b83811015610ae9573373ffffffffffffffffffffffffffffffffffffffff16600a6000600184610a7991906135aa565b815260200190815260200160002060020160009054906101000a900473ffffffffffffffffffffffffffffffffffffffff1673ffffffffffffffffffffffffffffffffffffffff1603610ad657600183610ad391906135aa565b92505b8080610ae19061360d565b915050610a49565b5060008267ffffffffffffffff811115610b0657610b0561302c565b5b604051908082528060200260200182016040528015610b3f57816020015b610b2c612af7565b815260200190600190039081610b245790505b50905060005b84811015610d14573373ffffffffffffffffffffffffffffffffffffffff16600a6000600184610b7591906135aa565b815260200190815260200160002060020160009054906101000a900473ffffffffffffffffffffffffffffffffffffffff1673ffffffffffffffffffffffffffffffffffffffff1603610d01576000600182610bd191906135aa565b90506000600a60008381526020019081526020016000209050806040518060a0016040529081600082015481526020016001820160009054906101000a900473ffffffffffffffffffffffffffffffffffffffff1673ffffffffffffffffffffffffffffffffffffffff1673ffffffffffffffffffffffffffffffffffffffff1681526020016002820160009054906101000a900473ffffffffffffffffffffffffffffffffffffffff1673ffffffffffffffffffffffffffffffffffffffff1673ffffffffffffffffffffffffffffffffffffffff168152602001600382015481526020016004820160009054906101000a900460ff161515151581525050848681518110610ce457610ce36135de565b5b6020026020010181905250600185610cfc91906135aa565b945050505b8080610d0c9061360d565b915050610b45565b508094505050505090565b610d30610d2a6119de565b82611aad565b610d6f576040517f08c379a0000000000000000000000000000000000000000000000000000000008152600401610d66906136c7565b60405180910390fd5b610d7a838383611b42565b505050565b610d9a8383836040518060200160405280600081525061134a565b505050565b60606000610dad6007611a9f565b905060008060005b83811015610e55573373ffffffffffffffffffffffffffffffffffffffff16600a6000600184610de591906135aa565b815260200190815260200160002060010160009054906101000a900473ffffffffffffffffffffffffffffffffffffffff1673ffffffffffffffffffffffffffffffffffffffff1603610e4257600183610e3f91906135aa565b92505b8080610e4d9061360d565b915050610db5565b5060008267ffffffffffffffff811115610e7257610e7161302c565b5b604051908082528060200260200182016040528015610eab57816020015b610e98612af7565b815260200190600190039081610e905790505b50905060005b84811015611080573373ffffffffffffffffffffffffffffffffffffffff16600a6000600184610ee191906135aa565b815260200190815260200160002060010160009054906101000a900473ffffffffffffffffffffffffffffffffffffffff1673ffffffffffffffffffffffffffffffffffffffff160361106d576000600182610f3d91906135aa565b90506000600a60008381526020019081526020016000209050806040518060a0016040529081600082015481526020016001820160009054906101000a900473ffffffffffffffffffffffffffffffffffffffff1673ffffffffffffffffffffffffffffffffffffffff1673ffffffffffffffffffffffffffffffffffffffff1681526020016002820160009054906101000a900473ffffffffffffffffffffffffffffffffffffffff1673ffffffffffffffffffffffffffffffffffffffff1673ffffffffffffffffffffffffffffffffffffffff168152602001600382015481526020016004820160009054906101000a900460ff1615151515815250508486815181106110505761104f6135de565b5b602002602001018190525060018561106891906135aa565b945050505b80806110789061360d565b915050610eb1565b508094505050505090565b60008061109783611e3b565b9050600073ffffffffffffffffffffffffffffffffffffffff168173ffffffffffffffffffffffffffffffffffffffff1603611108576040517f08c379a00000000000000000000000000000000000000000000000000000000081526004016110ff90613733565b60405180910390fd5b80915050919050565b60008073ffffffffffffffffffffffffffffffffffffffff168273ffffffffffffffffffffffffffffffffffffffff1603611181576040517f08c379a0000000000000000000000000000000000000000000000000000000008152600401611178906137c5565b60405180910390fd5b600360008373ffffffffffffffffffffffffffffffffffffffff1673ffffffffffffffffffffffffffffffffffffffff168152602001908152602001600020549050919050565b60006111d46007611e78565b60006111e06007611a9f565b90506111ec3382611e8e565b6111f681856120ab565b6112008184612118565b8091505092915050565b606060018054611219906133f2565b80601f0160208091040260200160405190810160405280929190818152602001828054611245906133f2565b80156112925780601f1061126757610100808354040283529160200191611292565b820191906000526020600020905b81548152906001019060200180831161127557829003601f168201915b5050505050905090565b6112ae6112a76119de565b838361231c565b5050565b7f000000000000000000000000000000000000000000000000000000000000000073ffffffffffffffffffffffffffffffffffffffff163373ffffffffffffffffffffffffffffffffffffffff1614611340576040517f08c379a000000000000000000000000000000000000000000000000000000000815260040161133790613831565b60405180910390fd5b8060098190555050565b61135b6113556119de565b83611aad565b61139a576040517f08c379a0000000000000000000000000000000000000000000000000000000008152600401611391906136c7565b60405180910390fd5b6113a684848484612488565b50505050565b6000600a60008381526020019081526020016000206003015490508034101561140a576040517f08c379a00000000000000000000000000000000000000000000000000000000081526004016114019061389d565b60405180910390fd5b33600a600084815260200190815260200160002060020160006101000a81548173ffffffffffffffffffffffffffffffffffffffff021916908373ffffffffffffffffffffffffffffffffffffffff1602179055506001600a600084815260200190815260200160002060040160006101000a81548160ff0219169083151502179055506114986008611e78565b6114a3303384611b42565b7f000000000000000000000000000000000000000000000000000000000000000073ffffffffffffffffffffffffffffffffffffffff166108fc6009549081150290604051600060405180830381858888f1935050505015801561150b573d6000803e3d6000fd5b50600a600083815260200190815260200160002060010160009054906101000a900473ffffffffffffffffffffffffffffffffffffffff1673ffffffffffffffffffffffffffffffffffffffff166108fc349081150290604051600060405180830381858888f19350505050158015611588573d6000803e3d6000fd5b505050565b606061159882611993565b60006006600084815260200190815260200160002080546115b8906133f2565b80601f01602080910402602001604051908101604052809291908181526020018280546115e4906133f2565b80156116315780601f1061160657610100808354040283529160200191611631565b820191906000526020600020905b81548152906001019060200180831161161457829003601f168201915b5050505050905060006116426124e4565b9050600081510361165757819250505061169a565b60008251111561168c5780826040516020016116749291906138f9565b6040516020818303038152906040529250505061169a565b611695846124fb565b925050505b919050565b3373ffffffffffffffffffffffffffffffffffffffff16600a600084815260200190815260200160002060020160009054906101000a900473ffffffffffffffffffffffffffffffffffffffff1673ffffffffffffffffffffffffffffffffffffffff1614611743576040517f08c379a000000000000000000000000000000000000000000000000000000000815260040161173a90613969565b60405180910390fd5b600954341015611788576040517f08c379a000000000000000000000000000000000000000000000000000000000815260040161177f906139fb565b60405180910390fd5b6000600a600084815260200190815260200160002060040160006101000a81548160ff02191690831515021790555080600a60008481526020019081526020016000206003018190555033600a600084815260200190815260200160002060010160006101000a81548173ffffffffffffffffffffffffffffffffffffffff021916908373ffffffffffffffffffffffffffffffffffffffff16021790555030600a600084815260200190815260200160002060020160006101000a81548173ffffffffffffffffffffffffffffffffffffffff021916908373ffffffffffffffffffffffffffffffffffffffff1602179055506118866008612563565b611891333084611b42565b5050565b6000600560008473ffffffffffffffffffffffffffffffffffffffff1673ffffffffffffffffffffffffffffffffffffffff16815260200190815260200160002060008373ffffffffffffffffffffffffffffffffffffffff1673ffffffffffffffffffffffffffffffffffffffff16815260200190815260200160002060009054906101000a900460ff16905092915050565b60007f01ffc9a7000000000000000000000000000000000000000000000000000000007bffffffffffffffffffffffffffffffffffffffffffffffffffffffff1916827bffffffffffffffffffffffffffffffffffffffffffffffffffffffff1916149050919050565b61199c816125bf565b6119db576040517f08c379a00000000000000000000000000000000000000000000000000000000081526004016119d290613733565b60405180910390fd5b50565b600033905090565b816004600083815260200190815260200160002060006101000a81548173ffffffffffffffffffffffffffffffffffffffff021916908373ffffffffffffffffffffffffffffffffffffffff160217905550808273ffffffffffffffffffffffffffffffffffffffff16611a598361108b565b73ffffffffffffffffffffffffffffffffffffffff167f8c5be1e5ebec7d5bd14f71427d1e84f3dd0314c0f7b2291e5b200ac8c7c3b92560405160405180910390a45050565b600081600001549050919050565b600080611ab98361108b565b90508073ffffffffffffffffffffffffffffffffffffffff168473ffffffffffffffffffffffffffffffffffffffff161480611afb5750611afa8185611895565b5b80611b3957508373ffffffffffffffffffffffffffffffffffffffff16611b2184610664565b73ffffffffffffffffffffffffffffffffffffffff16145b91505092915050565b8273ffffffffffffffffffffffffffffffffffffffff16611b628261108b565b73ffffffffffffffffffffffffffffffffffffffff1614611bb8576040517f08c379a0000000000000000000000000000000000000000000000000000000008152600401611baf90613a8d565b60405180910390fd5b600073ffffffffffffffffffffffffffffffffffffffff168273ffffffffffffffffffffffffffffffffffffffff1603611c27576040517f08c379a0000000000000000000000000000000000000000000000000000000008152600401611c1e90613b1f565b60405180910390fd5b611c348383836001612600565b8273ffffffffffffffffffffffffffffffffffffffff16611c548261108b565b73ffffffffffffffffffffffffffffffffffffffff1614611caa576040517f08c379a0000000000000000000000000000000000000000000000000000000008152600401611ca190613a8d565b60405180910390fd5b6004600082815260200190815260200160002060006101000a81549073ffffffffffffffffffffffffffffffffffffffff02191690556001600360008573ffffffffffffffffffffffffffffffffffffffff1673ffffffffffffffffffffffffffffffffffffffff168152602001908152602001600020600082825403925050819055506001600360008473ffffffffffffffffffffffffffffffffffffffff1673ffffffffffffffffffffffffffffffffffffffff16815260200190815260200160002060008282540192505081905550816002600083815260200190815260200160002060006101000a81548173ffffffffffffffffffffffffffffffffffffffff021916908373ffffffffffffffffffffffffffffffffffffffff160217905550808273ffffffffffffffffffffffffffffffffffffffff168473ffffffffffffffffffffffffffffffffffffffff167fddf252ad1be2c89b69c2b068fc378daa952ba7f163c4a11628f55a4df523b3ef60405160405180910390a4611e368383836001612726565b505050565b60006002600083815260200190815260200160002060009054906101000a900473ffffffffffffffffffffffffffffffffffffffff169050919050565b6001816000016000828254019250508190555050565b600073ffffffffffffffffffffffffffffffffffffffff168273ffffffffffffffffffffffffffffffffffffffff1603611efd576040517f08c379a0000000000000000000000000000000000000000000000000000000008152600401611ef490613b8b565b60405180910390fd5b611f06816125bf565b15611f46576040517f08c379a0000000000000000000000000000000000000000000000000000000008152600401611f3d90613bf7565b60405180910390fd5b611f54600083836001612600565b611f5d816125bf565b15611f9d576040517f08c379a0000000000000000000000000000000000000000000000000000000008152600401611f9490613bf7565b60405180910390fd5b6001600360008473ffffffffffffffffffffffffffffffffffffffff1673ffffffffffffffffffffffffffffffffffffffff16815260200190815260200160002060008282540192505081905550816002600083815260200190815260200160002060006101000a81548173ffffffffffffffffffffffffffffffffffffffff021916908373ffffffffffffffffffffffffffffffffffffffff160217905550808273ffffffffffffffffffffffffffffffffffffffff16600073ffffffffffffffffffffffffffffffffffffffff167fddf252ad1be2c89b69c2b068fc378daa952ba7f163c4a11628f55a4df523b3ef60405160405180910390a46120a7600083836001612726565b5050565b6120b4826125bf565b6120f3576040517f08c379a00000000000000000000000000000000000000000000000000000000081526004016120ea90613c89565b60405180910390fd5b806006600084815260200190815260200160002090816121139190613e55565b505050565b6000811161215b576040517f08c379a000000000000000000000000000000000000000000000000000000000815260040161215290613f73565b60405180910390fd5b6009543410156121a0576040517f08c379a0000000000000000000000000000000000000000000000000000000008152600401612197906139fb565b60405180910390fd5b6040518060a001604052808381526020013373ffffffffffffffffffffffffffffffffffffffff1681526020013073ffffffffffffffffffffffffffffffffffffffff16815260200182815260200160001515815250600a60008481526020019081526020016000206000820151816000015560208201518160010160006101000a81548173ffffffffffffffffffffffffffffffffffffffff021916908373ffffffffffffffffffffffffffffffffffffffff16021790555060408201518160020160006101000a81548173ffffffffffffffffffffffffffffffffffffffff021916908373ffffffffffffffffffffffffffffffffffffffff1602179055506060820151816003015560808201518160040160006101000a81548160ff0219169083151502179055509050506122d9333084611b42565b817fdebdb32cb5230ab727c9c361b16fdb2015df225c10e6a3e7f60ecd5dc5be451633308460006040516123109493929190613f93565b60405180910390a25050565b8173ffffffffffffffffffffffffffffffffffffffff168373ffffffffffffffffffffffffffffffffffffffff160361238a576040517f08c379a000000000000000000000000000000000000000000000000000000000815260040161238190614024565b60405180910390fd5b80600560008573ffffffffffffffffffffffffffffffffffffffff1673ffffffffffffffffffffffffffffffffffffffff16815260200190815260200160002060008473ffffffffffffffffffffffffffffffffffffffff1673ffffffffffffffffffffffffffffffffffffffff16815260200190815260200160002060006101000a81548160ff0219169083151502179055508173ffffffffffffffffffffffffffffffffffffffff168373ffffffffffffffffffffffffffffffffffffffff167f17307eab39ab6107e8899845ad3d59bd9653f200f220920489ca2b5937696c318360405161247b9190612c08565b60405180910390a3505050565b612493848484611b42565b61249f8484848461272c565b6124de576040517f08c379a00000000000000000000000000000000000000000000000000000000081526004016124d5906140b6565b60405180910390fd5b50505050565b606060405180602001604052806000815250905090565b606061250682611993565b60006125106124e4565b90506000815111612530576040518060200160405280600081525061255b565b8061253a846128b3565b60405160200161254b9291906138f9565b6040516020818303038152906040525b915050919050565b600081600001549050600081116125af576040517f08c379a00000000000000000000000000000000000000000000000000000000081526004016125a690614122565b60405180910390fd5b6001810382600001819055505050565b60008073ffffffffffffffffffffffffffffffffffffffff166125e183611e3b565b73ffffffffffffffffffffffffffffffffffffffff1614159050919050565b600181111561272057600073ffffffffffffffffffffffffffffffffffffffff168473ffffffffffffffffffffffffffffffffffffffff16146126945780600360008673ffffffffffffffffffffffffffffffffffffffff1673ffffffffffffffffffffffffffffffffffffffff168152602001908152602001600020600082825461268c9190613576565b925050819055505b600073ffffffffffffffffffffffffffffffffffffffff168373ffffffffffffffffffffffffffffffffffffffff161461271f5780600360008573ffffffffffffffffffffffffffffffffffffffff1673ffffffffffffffffffffffffffffffffffffffff168152602001908152602001600020600082825461271791906135aa565b925050819055505b5b50505050565b50505050565b600061274d8473ffffffffffffffffffffffffffffffffffffffff16612981565b156128a6578373ffffffffffffffffffffffffffffffffffffffff1663150b7a026127766119de565b8786866040518563ffffffff1660e01b81526004016127989493929190614197565b6020604051808303816000875af19250505080156127d457506040513d601f19601f820116820180604052508101906127d191906141f8565b60015b612856573d8060008114612804576040519150601f19603f3d011682016040523d82523d6000602084013e612809565b606091505b50600081510361284e576040517f08c379a0000000000000000000000000000000000000000000000000000000008152600401612845906140b6565b60405180910390fd5b805181602001fd5b63150b7a0260e01b7bffffffffffffffffffffffffffffffffffffffffffffffffffffffff1916817bffffffffffffffffffffffffffffffffffffffffffffffffffffffff1916149150506128ab565b600190505b949350505050565b6060600060016128c2846129a4565b01905060008167ffffffffffffffff8111156128e1576128e061302c565b5b6040519080825280601f01601f1916602001820160405280156129135781602001600182028036833780820191505090505b509050600082602001820190505b600115612976578080600190039150507f3031323334353637383961626364656600000000000000000000000000000000600a86061a8153600a858161296a57612969614225565b5b04945060008503612921575b819350505050919050565b6000808273ffffffffffffffffffffffffffffffffffffffff163b119050919050565b600080600090507a184f03e93ff9f4daa797ed6e38ed64bf6a1f0100000000000000008310612a02577a184f03e93ff9f4daa797ed6e38ed64bf6a1f01000000000000000083816129f8576129f7614225565b5b0492506040810190505b6d04ee2d6d415b85acef81000000008310612a3f576d04ee2d6d415b85acef81000000008381612a3557612a34614225565b5b0492506020810190505b662386f26fc100008310612a6e57662386f26fc100008381612a6457612a63614225565b5b0492506010810190505b6305f5e1008310612a97576305f5e1008381612a8d57612a8c614225565b5b0492506008810190505b6127108310612abc576127108381612ab257612ab1614225565b5b0492506004810190505b60648310612adf5760648381612ad557612ad4614225565b5b0492506002810190505b600a8310612aee576001810190505b80915050919050565b6040518060a0016040528060008152602001600073ffffffffffffffffffffffffffffffffffffffff168152602001600073ffffffffffffffffffffffffffffffffffffffff168152602001600081526020016000151581525090565b6000604051905090565b600080fd5b600080fd5b60007fffffffff0000000000000000000000000000000000000000000000000000000082169050919050565b612b9d81612b68565b8114612ba857600080fd5b50565b600081359050612bba81612b94565b92915050565b600060208284031215612bd657612bd5612b5e565b5b6000612be484828501612bab565b91505092915050565b60008115159050919050565b612c0281612bed565b82525050565b6000602082019050612c1d6000830184612bf9565b92915050565b600081519050919050565b600082825260208201905092915050565b60005b83811015612c5d578082015181840152602081019050612c42565b60008484015250505050565b6000601f19601f8301169050919050565b6000612c8582612c23565b612c8f8185612c2e565b9350612c9f818560208601612c3f565b612ca881612c69565b840191505092915050565b60006020820190508181036000830152612ccd8184612c7a565b905092915050565b6000819050919050565b612ce881612cd5565b8114612cf357600080fd5b50565b600081359050612d0581612cdf565b92915050565b600060208284031215612d2157612d20612b5e565b5b6000612d2f84828501612cf6565b91505092915050565b600073ffffffffffffffffffffffffffffffffffffffff82169050919050565b6000612d6382612d38565b9050919050565b612d7381612d58565b82525050565b6000602082019050612d8e6000830184612d6a565b92915050565b612d9d81612d58565b8114612da857600080fd5b50565b600081359050612dba81612d94565b92915050565b60008060408385031215612dd757612dd6612b5e565b5b6000612de585828601612dab565b9250506020612df685828601612cf6565b9150509250929050565b600081519050919050565b600082825260208201905092915050565b6000819050602082019050919050565b612e3581612cd5565b82525050565b6000612e4682612d38565b9050919050565b612e5681612e3b565b82525050565b612e6581612bed565b82525050565b60a082016000820151612e816000850182612e2c565b506020820151612e946020850182612e4d565b506040820151612ea76040850182612e4d565b506060820151612eba6060850182612e2c565b506080820151612ecd6080850182612e5c565b50505050565b6000612edf8383612e6b565b60a08301905092915050565b6000602082019050919050565b6000612f0382612e00565b612f0d8185612e0b565b9350612f1883612e1c565b8060005b83811015612f49578151612f308882612ed3565b9750612f3b83612eeb565b925050600181019050612f1c565b5085935050505092915050565b60006020820190508181036000830152612f708184612ef8565b905092915050565b612f8181612cd5565b82525050565b6000602082019050612f9c6000830184612f78565b92915050565b600080600060608486031215612fbb57612fba612b5e565b5b6000612fc986828701612dab565b9350506020612fda86828701612dab565b9250506040612feb86828701612cf6565b9150509250925092565b60006020828403121561300b5761300a612b5e565b5b600061301984828501612dab565b91505092915050565b600080fd5b600080fd5b7f4e487b7100000000000000000000000000000000000000000000000000000000600052604160045260246000fd5b61306482612c69565b810181811067ffffffffffffffff821117156130835761308261302c565b5b80604052505050565b6000613096612b54565b90506130a2828261305b565b919050565b600067ffffffffffffffff8211156130c2576130c161302c565b5b6130cb82612c69565b9050602081019050919050565b82818337600083830152505050565b60006130fa6130f5846130a7565b61308c565b90508281526020810184848401111561311657613115613027565b5b6131218482856130d8565b509392505050565b600082601f83011261313e5761313d613022565b5b813561314e8482602086016130e7565b91505092915050565b6000806040838503121561316e5761316d612b5e565b5b600083013567ffffffffffffffff81111561318c5761318b612b63565b5b61319885828601613129565b92505060206131a985828601612cf6565b9150509250929050565b6131bc81612bed565b81146131c757600080fd5b50565b6000813590506131d9816131b3565b92915050565b600080604083850312156131f6576131f5612b5e565b5b600061320485828601612dab565b9250506020613215858286016131ca565b9150509250929050565b600067ffffffffffffffff82111561323a5761323961302c565b5b61324382612c69565b9050602081019050919050565b600061326361325e8461321f565b61308c565b90508281526020810184848401111561327f5761327e613027565b5b61328a8482856130d8565b509392505050565b600082601f8301126132a7576132a6613022565b5b81356132b7848260208601613250565b91505092915050565b600080600080608085870312156132da576132d9612b5e565b5b60006132e887828801612dab565b94505060206132f987828801612dab565b935050604061330a87828801612cf6565b925050606085013567ffffffffffffffff81111561332b5761332a612b63565b5b61333787828801613292565b91505092959194509250565b6000806040838503121561335a57613359612b5e565b5b600061336885828601612cf6565b925050602061337985828601612cf6565b9150509250929050565b6000806040838503121561339a57613399612b5e565b5b60006133a885828601612dab565b92505060206133b985828601612dab565b9150509250929050565b7f4e487b7100000000000000000000000000000000000000000000000000000000600052602260045260246000fd5b6000600282049050600182168061340a57607f821691505b60208210810361341d5761341c6133c3565b5b50919050565b7f4552433732313a20617070726f76616c20746f2063757272656e74206f776e6560008201527f7200000000000000000000000000000000000000000000000000000000000000602082015250565b600061347f602183612c2e565b915061348a82613423565b604082019050919050565b600060208201905081810360008301526134ae81613472565b9050919050565b7f4552433732313a20617070726f76652063616c6c6572206973206e6f7420746f60008201527f6b656e206f776e6572206f7220617070726f76656420666f7220616c6c000000602082015250565b6000613511603d83612c2e565b915061351c826134b5565b604082019050919050565b6000602082019050818103600083015261354081613504565b9050919050565b7f4e487b7100000000000000000000000000000000000000000000000000000000600052601160045260246000fd5b600061358182612cd5565b915061358c83612cd5565b92508282039050818111156135a4576135a3613547565b5b92915050565b60006135b582612cd5565b91506135c083612cd5565b92508282019050808211156135d8576135d7613547565b5b92915050565b7f4e487b7100000000000000000000000000000000000000000000000000000000600052603260045260246000fd5b600061361882612cd5565b91507fffffffffffffffffffffffffffffffffffffffffffffffffffffffffffffffff820361364a57613649613547565b5b600182019050919050565b7f4552433732313a2063616c6c6572206973206e6f7420746f6b656e206f776e6560008201527f72206f7220617070726f76656400000000000000000000000000000000000000602082015250565b60006136b1602d83612c2e565b91506136bc82613655565b604082019050919050565b600060208201905081810360008301526136e0816136a4565b9050919050565b7f4552433732313a20696e76616c696420746f6b656e2049440000000000000000600082015250565b600061371d601883612c2e565b9150613728826136e7565b602082019050919050565b6000602082019050818103600083015261374c81613710565b9050919050565b7f4552433732313a2061646472657373207a65726f206973206e6f74206120766160008201527f6c6964206f776e65720000000000000000000000000000000000000000000000602082015250565b60006137af602983612c2e565b91506137ba82613753565b604082019050919050565b600060208201905081810360008301526137de816137a2565b9050919050565b7f4e6f74204f776e65720000000000000000000000000000000000000000000000600082015250565b600061381b600983612c2e565b9150613826826137e5565b602082019050919050565b6000602082019050818103600083015261384a8161380e565b9050919050565b7f5375626d697420636f7272656374207072696365000000000000000000000000600082015250565b6000613887601483612c2e565b915061389282613851565b602082019050919050565b600060208201905081810360008301526138b68161387a565b9050919050565b600081905092915050565b60006138d382612c23565b6138dd81856138bd565b93506138ed818560208601612c3f565b80840191505092915050565b600061390582856138c8565b915061391182846138c8565b91508190509392505050565b7f4f6e6c79206f776e65722063616e206c697374206974656d0000000000000000600082015250565b6000613953601883612c2e565b915061395e8261391d565b602082019050919050565b6000602082019050818103600083015261398281613946565b9050919050565b7f6c697374696e6720666565206973206c657373207468616e206c697374696e6760008201527f5072696365000000000000000000000000000000000000000000000000000000602082015250565b60006139e5602583612c2e565b91506139f082613989565b604082019050919050565b60006020820190508181036000830152613a14816139d8565b9050919050565b7f4552433732313a207472616e736665722066726f6d20696e636f72726563742060008201527f6f776e6572000000000000000000000000000000000000000000000000000000602082015250565b6000613a77602583612c2e565b9150613a8282613a1b565b604082019050919050565b60006020820190508181036000830152613aa681613a6a565b9050919050565b7f4552433732313a207472616e7366657220746f20746865207a65726f2061646460008201527f7265737300000000000000000000000000000000000000000000000000000000602082015250565b6000613b09602483612c2e565b9150613b1482613aad565b604082019050919050565b60006020820190508181036000830152613b3881613afc565b9050919050565b7f4552433732313a206d696e7420746f20746865207a65726f2061646472657373600082015250565b6000613b75602083612c2e565b9150613b8082613b3f565b602082019050919050565b60006020820190508181036000830152613ba481613b68565b9050919050565b7f4552433732313a20746f6b656e20616c7265616479206d696e74656400000000600082015250565b6000613be1601c83612c2e565b9150613bec82613bab565b602082019050919050565b60006020820190508181036000830152613c1081613bd4565b9050919050565b7f45524337323155524953746f726167653a2055524920736574206f66206e6f6e60008201527f6578697374656e7420746f6b656e000000000000000000000000000000000000602082015250565b6000613c73602e83612c2e565b9150613c7e82613c17565b604082019050919050565b60006020820190508181036000830152613ca281613c66565b9050919050565b60008190508160005260206000209050919050565b60006020601f8301049050919050565b600082821b905092915050565b600060088302613d0b7fffffffffffffffffffffffffffffffffffffffffffffffffffffffffffffffff82613cce565b613d158683613cce565b95508019841693508086168417925050509392505050565b6000819050919050565b6000613d52613d4d613d4884612cd5565b613d2d565b612cd5565b9050919050565b6000819050919050565b613d6c83613d37565b613d80613d7882613d59565b848454613cdb565b825550505050565b600090565b613d95613d88565b613da0818484613d63565b505050565b5b81811015613dc457613db9600082613d8d565b600181019050613da6565b5050565b601f821115613e0957613dda81613ca9565b613de384613cbe565b81016020851015613df2578190505b613e06613dfe85613cbe565b830182613da5565b50505b505050565b600082821c905092915050565b6000613e2c60001984600802613e0e565b1980831691505092915050565b6000613e458383613e1b565b9150826002028217905092915050565b613e5e82612c23565b67ffffffffffffffff811115613e7757613e7661302c565b5b613e8182546133f2565b613e8c828285613dc8565b600060209050601f831160018114613ebf5760008415613ead578287015190505b613eb78582613e39565b865550613f1f565b601f198416613ecd86613ca9565b60005b82811015613ef557848901518255600182019150602085019450602081019050613ed0565b86831015613f125784890151613f0e601f891682613e1b565b8355505b6001600288020188555050505b505050505050565b7f43616e6e6f742073657420507269636520746f205a65726f0000000000000000600082015250565b6000613f5d601883612c2e565b9150613f6882613f27565b602082019050919050565b60006020820190508181036000830152613f8c81613f50565b9050919050565b6000608082019050613fa86000830187612d6a565b613fb56020830186612d6a565b613fc26040830185612f78565b613fcf6060830184612bf9565b95945050505050565b7f4552433732313a20617070726f766520746f2063616c6c657200000000000000600082015250565b600061400e601983612c2e565b915061401982613fd8565b602082019050919050565b6000602082019050818103600083015261403d81614001565b9050919050565b7f4552433732313a207472616e7366657220746f206e6f6e20455243373231526560008201527f63656976657220696d706c656d656e7465720000000000000000000000000000602082015250565b60006140a0603283612c2e565b91506140ab82614044565b604082019050919050565b600060208201905081810360008301526140cf81614093565b9050919050565b7f436f756e7465723a2064656372656d656e74206f766572666c6f770000000000600082015250565b600061410c601b83612c2e565b9150614117826140d6565b602082019050919050565b6000602082019050818103600083015261413b816140ff565b9050919050565b600081519050919050565b600082825260208201905092915050565b600061416982614142565b614173818561414d565b9350614183818560208601612c3f565b61418c81612c69565b840191505092915050565b60006080820190506141ac6000830187612d6a565b6141b96020830186612d6a565b6141c66040830185612f78565b81810360608301526141d8818461415e565b905095945050505050565b6000815190506141f281612b94565b92915050565b60006020828403121561420e5761420d612b5e565b5b600061421c848285016141e3565b91505092915050565b7f4e487b7100000000000000000000000000000000000000000000000000000000600052601260045260246000fdfea264697066735822122073006227c6e36ef49bba0dcbcce11ebfd4de698b5ebdf5cbfbaeb199f15c39e364736f6c63430008110033",
  "linkReferences": {},
  "deployedLinkReferences": {}
}